{
	"contracts/PriceConverter.sol": {
		"PriceConverter": {
			"abi": [
				{
					"inputs": [
						{
							"internalType": "uint256",
							"name": "ethAmount",
							"type": "uint256"
						}
					],
					"name": "getConversionRate",
					"outputs": [
						{
							"internalType": "uint256",
							"name": "",
							"type": "uint256"
						}
					],
					"stateMutability": "view",
					"type": "function"
				},
				{
					"inputs": [],
					"name": "getPrice",
					"outputs": [
						{
							"internalType": "uint256",
							"name": "",
							"type": "uint256"
						}
					],
					"stateMutability": "view",
					"type": "function"
				}
			],
			"devdoc": {
				"kind": "dev",
				"methods": {},
				"version": 1
			},
			"evm": {
				"assembly": "    /* \"contracts/PriceConverter.sol\":135:892  library PriceConverter {... */\n  dataSize(sub_0)\n  dataOffset(sub_0)\n  0x0b\n  dup3\n  dup3\n  dup3\n  codecopy\n  dup1\n  mload\n  0x00\n  byte\n  0x73\n  eq\n  tag_1\n  jumpi\n  mstore(0x00, 0x4e487b7100000000000000000000000000000000000000000000000000000000)\n  mstore(0x04, 0x00)\n  revert(0x00, 0x24)\ntag_1:\n  mstore(0x00, address)\n  0x73\n  dup2\n  mstore8\n  dup3\n  dup2\n  return\nstop\n\nsub_0: assembly {\n        /* \"contracts/PriceConverter.sol\":135:892  library PriceConverter {... */\n      eq(address, deployTimeAddress())\n      mstore(0x40, 0x80)\n      jumpi(tag_1, lt(calldatasize, 0x04))\n      shr(0xe0, calldataload(0x00))\n      dup1\n      0x6e5b6b28\n      eq\n      tag_2\n      jumpi\n      dup1\n      0x98d5fdca\n      eq\n      tag_3\n      jumpi\n    tag_1:\n      0x00\n      dup1\n      revert\n        /* \"contracts/PriceConverter.sol\":671:890  function getConversionRate(uint256 ethAmount) public view returns(uint256) {... */\n    tag_2:\n      tag_4\n      0x04\n      dup1\n      calldatasize\n      sub\n      dup2\n      add\n      swap1\n      tag_5\n      swap2\n      swap1\n      tag_6\n      jump\t// in\n    tag_5:\n      tag_7\n      jump\t// in\n    tag_4:\n      mload(0x40)\n      tag_8\n      swap2\n      swap1\n      tag_9\n      jump\t// in\n    tag_8:\n      mload(0x40)\n      dup1\n      swap2\n      sub\n      swap1\n      return\n        /* \"contracts/PriceConverter.sol\":164:665  function getPrice() public view returns(uint256) {... */\n    tag_3:\n      tag_10\n      tag_11\n      jump\t// in\n    tag_10:\n      mload(0x40)\n      tag_12\n      swap2\n      swap1\n      tag_9\n      jump\t// in\n    tag_12:\n      mload(0x40)\n      dup1\n      swap2\n      sub\n      swap1\n      return\n        /* \"contracts/PriceConverter.sol\":671:890  function getConversionRate(uint256 ethAmount) public view returns(uint256) {... */\n    tag_7:\n        /* \"contracts/PriceConverter.sol\":737:744  uint256 */\n      0x00\n        /* \"contracts/PriceConverter.sol\":756:772  uint256 ethPrice */\n      dup1\n        /* \"contracts/PriceConverter.sol\":775:785  getPrice() */\n      tag_14\n        /* \"contracts/PriceConverter.sol\":775:783  getPrice */\n      tag_11\n        /* \"contracts/PriceConverter.sol\":775:785  getPrice() */\n      jump\t// in\n    tag_14:\n        /* \"contracts/PriceConverter.sol\":756:785  uint256 ethPrice = getPrice() */\n      swap1\n      pop\n        /* \"contracts/PriceConverter.sol\":795:814  uint ethAmountInUsd */\n      0x00\n        /* \"contracts/PriceConverter.sol\":847:851  1e18 */\n      0x0de0b6b3a7640000\n        /* \"contracts/PriceConverter.sol\":842:844  10 */\n      0x0a\n        /* \"contracts/PriceConverter.sol\":829:838  ethAmount */\n      dup6\n        /* \"contracts/PriceConverter.sol\":818:826  ethPrice */\n      dup5\n        /* \"contracts/PriceConverter.sol\":818:838  ethPrice * ethAmount */\n      tag_15\n      swap2\n      swap1\n      tag_16\n      jump\t// in\n    tag_15:\n        /* \"contracts/PriceConverter.sol\":817:844  (ethPrice * ethAmount) / 10 */\n      tag_17\n      swap2\n      swap1\n      tag_18\n      jump\t// in\n    tag_17:\n        /* \"contracts/PriceConverter.sol\":817:851  (ethPrice * ethAmount) / 10 * 1e18 */\n      tag_19\n      swap2\n      swap1\n      tag_16\n      jump\t// in\n    tag_19:\n        /* \"contracts/PriceConverter.sol\":795:851  uint ethAmountInUsd = (ethPrice * ethAmount) / 10 * 1e18 */\n      swap1\n      pop\n        /* \"contracts/PriceConverter.sol\":869:883  ethAmountInUsd */\n      dup1\n        /* \"contracts/PriceConverter.sol\":862:883  return ethAmountInUsd */\n      swap3\n      pop\n      pop\n      pop\n        /* \"contracts/PriceConverter.sol\":671:890  function getConversionRate(uint256 ethAmount) public view returns(uint256) {... */\n      swap2\n      swap1\n      pop\n      jump\t// out\n        /* \"contracts/PriceConverter.sol\":164:665  function getPrice() public view returns(uint256) {... */\n    tag_11:\n        /* \"contracts/PriceConverter.sol\":204:211  uint256 */\n      0x00\n        /* \"contracts/PriceConverter.sol\":301:332  AggregatorV3Interface priceFeed */\n      dup1\n        /* \"contracts/PriceConverter.sol\":357:399  0x779877A7B0D9E8603169DdbD7836e478b4624789 */\n      0x779877a7b0d9e8603169ddbd7836e478b4624789\n        /* \"contracts/PriceConverter.sol\":301:400  AggregatorV3Interface priceFeed = AggregatorV3Interface(0x779877A7B0D9E8603169DdbD7836e478b4624789) */\n      swap1\n      pop\n        /* \"contracts/PriceConverter.sol\":412:424  int256 price */\n      0x00\n        /* \"contracts/PriceConverter.sol\":431:440  priceFeed */\n      dup2\n        /* \"contracts/PriceConverter.sol\":431:456  priceFeed.latestRoundData */\n      0xffffffffffffffffffffffffffffffffffffffff\n      and\n      0xfeaf968c\n        /* \"contracts/PriceConverter.sol\":431:458  priceFeed.latestRoundData() */\n      mload(0x40)\n      dup2\n      0xffffffff\n      and\n      0xe0\n      shl\n      dup2\n      mstore\n      0x04\n      add\n      0xa0\n      mload(0x40)\n      dup1\n      dup4\n      sub\n      dup2\n      dup7\n      dup1\n      extcodesize\n      iszero\n      dup1\n      iszero\n      tag_21\n      jumpi\n      0x00\n      dup1\n      revert\n    tag_21:\n      pop\n      gas\n      staticcall\n      iszero\n      dup1\n      iszero\n      tag_23\n      jumpi\n      returndatasize\n      0x00\n      dup1\n      returndatacopy\n      revert(0x00, returndatasize)\n    tag_23:\n      pop\n      pop\n      pop\n      pop\n      mload(0x40)\n      returndatasize\n      not(0x1f)\n      0x1f\n      dup3\n      add\n      and\n      dup3\n      add\n      dup1\n      0x40\n      mstore\n      pop\n      dup2\n      add\n      swap1\n      tag_24\n      swap2\n      swap1\n      tag_25\n      jump\t// in\n    tag_24:\n        /* \"contracts/PriceConverter.sol\":410:458  (,int256 price,,,) = priceFeed.latestRoundData() */\n      pop\n      pop\n      pop\n      swap2\n      pop\n      pop\n        /* \"contracts/PriceConverter.sol\":630:634  1e10 */\n      0x02540be400\n        /* \"contracts/PriceConverter.sol\":622:627  price */\n      dup2\n        /* \"contracts/PriceConverter.sol\":622:634  price * 1e10 */\n      tag_26\n      swap2\n      swap1\n      tag_27\n      jump\t// in\n    tag_26:\n        /* \"contracts/PriceConverter.sol\":607:635  return uint256(price * 1e10) */\n      swap3\n      pop\n      pop\n      pop\n        /* \"contracts/PriceConverter.sol\":164:665  function getPrice() public view returns(uint256) {... */\n      swap1\n      jump\t// out\n        /* \"#utility.yul\":88:205   */\n    tag_29:\n        /* \"#utility.yul\":197:198   */\n      0x00\n        /* \"#utility.yul\":194:195   */\n      dup1\n        /* \"#utility.yul\":187:199   */\n      revert\n        /* \"#utility.yul\":334:411   */\n    tag_31:\n        /* \"#utility.yul\":371:378   */\n      0x00\n        /* \"#utility.yul\":400:405   */\n      dup2\n        /* \"#utility.yul\":389:405   */\n      swap1\n      pop\n        /* \"#utility.yul\":334:411   */\n      swap2\n      swap1\n      pop\n      jump\t// out\n        /* \"#utility.yul\":417:539   */\n    tag_32:\n        /* \"#utility.yul\":490:514   */\n      tag_50\n        /* \"#utility.yul\":508:513   */\n      dup2\n        /* \"#utility.yul\":490:514   */\n      tag_31\n      jump\t// in\n    tag_50:\n        /* \"#utility.yul\":483:488   */\n      dup2\n        /* \"#utility.yul\":480:515   */\n      eq\n        /* \"#utility.yul\":470:533   */\n      tag_51\n      jumpi\n        /* \"#utility.yul\":529:530   */\n      0x00\n        /* \"#utility.yul\":526:527   */\n      dup1\n        /* \"#utility.yul\":519:531   */\n      revert\n        /* \"#utility.yul\":470:533   */\n    tag_51:\n        /* \"#utility.yul\":417:539   */\n      pop\n      jump\t// out\n        /* \"#utility.yul\":545:684   */\n    tag_33:\n        /* \"#utility.yul\":591:596   */\n      0x00\n        /* \"#utility.yul\":629:635   */\n      dup2\n        /* \"#utility.yul\":616:636   */\n      calldataload\n        /* \"#utility.yul\":607:636   */\n      swap1\n      pop\n        /* \"#utility.yul\":645:678   */\n      tag_53\n        /* \"#utility.yul\":672:677   */\n      dup2\n        /* \"#utility.yul\":645:678   */\n      tag_32\n      jump\t// in\n    tag_53:\n        /* \"#utility.yul\":545:684   */\n      swap3\n      swap2\n      pop\n      pop\n      jump\t// out\n        /* \"#utility.yul\":690:1019   */\n    tag_6:\n        /* \"#utility.yul\":749:755   */\n      0x00\n        /* \"#utility.yul\":798:800   */\n      0x20\n        /* \"#utility.yul\":786:795   */\n      dup3\n        /* \"#utility.yul\":777:784   */\n      dup5\n        /* \"#utility.yul\":773:796   */\n      sub\n        /* \"#utility.yul\":769:801   */\n      slt\n        /* \"#utility.yul\":766:885   */\n      iszero\n      tag_55\n      jumpi\n        /* \"#utility.yul\":804:883   */\n      tag_56\n      tag_29\n      jump\t// in\n    tag_56:\n        /* \"#utility.yul\":766:885   */\n    tag_55:\n        /* \"#utility.yul\":924:925   */\n      0x00\n        /* \"#utility.yul\":949:1002   */\n      tag_57\n        /* \"#utility.yul\":994:1001   */\n      dup5\n        /* \"#utility.yul\":985:991   */\n      dup3\n        /* \"#utility.yul\":974:983   */\n      dup6\n        /* \"#utility.yul\":970:992   */\n      add\n        /* \"#utility.yul\":949:1002   */\n      tag_33\n      jump\t// in\n    tag_57:\n        /* \"#utility.yul\":939:1002   */\n      swap2\n      pop\n        /* \"#utility.yul\":895:1012   */\n      pop\n        /* \"#utility.yul\":690:1019   */\n      swap3\n      swap2\n      pop\n      pop\n      jump\t// out\n        /* \"#utility.yul\":1025:1151   */\n    tag_34:\n        /* \"#utility.yul\":1120:1144   */\n      tag_59\n        /* \"#utility.yul\":1138:1143   */\n      dup2\n        /* \"#utility.yul\":1120:1144   */\n      tag_31\n      jump\t// in\n    tag_59:\n        /* \"#utility.yul\":1115:1118   */\n      dup3\n        /* \"#utility.yul\":1108:1145   */\n      mstore\n        /* \"#utility.yul\":1025:1151   */\n      pop\n      pop\n      jump\t// out\n        /* \"#utility.yul\":1157:1395   */\n    tag_9:\n        /* \"#utility.yul\":1258:1262   */\n      0x00\n        /* \"#utility.yul\":1296:1298   */\n      0x20\n        /* \"#utility.yul\":1285:1294   */\n      dup3\n        /* \"#utility.yul\":1281:1299   */\n      add\n        /* \"#utility.yul\":1273:1299   */\n      swap1\n      pop\n        /* \"#utility.yul\":1309:1388   */\n      tag_61\n        /* \"#utility.yul\":1385:1386   */\n      0x00\n        /* \"#utility.yul\":1374:1383   */\n      dup4\n        /* \"#utility.yul\":1370:1387   */\n      add\n        /* \"#utility.yul\":1361:1367   */\n      dup5\n        /* \"#utility.yul\":1309:1388   */\n      tag_34\n      jump\t// in\n    tag_61:\n        /* \"#utility.yul\":1157:1395   */\n      swap3\n      swap2\n      pop\n      pop\n      jump\t// out\n        /* \"#utility.yul\":1401:1581   */\n    tag_35:\n        /* \"#utility.yul\":1449:1526   */\n      0x4e487b7100000000000000000000000000000000000000000000000000000000\n        /* \"#utility.yul\":1446:1447   */\n      0x00\n        /* \"#utility.yul\":1439:1527   */\n      mstore\n        /* \"#utility.yul\":1546:1550   */\n      0x11\n        /* \"#utility.yul\":1543:1544   */\n      0x04\n        /* \"#utility.yul\":1536:1551   */\n      mstore\n        /* \"#utility.yul\":1570:1574   */\n      0x24\n        /* \"#utility.yul\":1567:1568   */\n      0x00\n        /* \"#utility.yul\":1560:1575   */\n      revert\n        /* \"#utility.yul\":1587:1935   */\n    tag_16:\n        /* \"#utility.yul\":1627:1634   */\n      0x00\n        /* \"#utility.yul\":1650:1670   */\n      tag_64\n        /* \"#utility.yul\":1668:1669   */\n      dup3\n        /* \"#utility.yul\":1650:1670   */\n      tag_31\n      jump\t// in\n    tag_64:\n        /* \"#utility.yul\":1645:1670   */\n      swap2\n      pop\n        /* \"#utility.yul\":1684:1704   */\n      tag_65\n        /* \"#utility.yul\":1702:1703   */\n      dup4\n        /* \"#utility.yul\":1684:1704   */\n      tag_31\n      jump\t// in\n    tag_65:\n        /* \"#utility.yul\":1679:1704   */\n      swap3\n      pop\n        /* \"#utility.yul\":1872:1873   */\n      dup2\n        /* \"#utility.yul\":1804:1870   */\n      0xffffffffffffffffffffffffffffffffffffffffffffffffffffffffffffffff\n        /* \"#utility.yul\":1800:1874   */\n      div\n        /* \"#utility.yul\":1797:1798   */\n      dup4\n        /* \"#utility.yul\":1794:1875   */\n      gt\n        /* \"#utility.yul\":1789:1790   */\n      dup3\n        /* \"#utility.yul\":1782:1791   */\n      iszero\n        /* \"#utility.yul\":1775:1792   */\n      iszero\n        /* \"#utility.yul\":1771:1876   */\n      and\n        /* \"#utility.yul\":1768:1899   */\n      iszero\n      tag_66\n      jumpi\n        /* \"#utility.yul\":1879:1897   */\n      tag_67\n      tag_35\n      jump\t// in\n    tag_67:\n        /* \"#utility.yul\":1768:1899   */\n    tag_66:\n        /* \"#utility.yul\":1927:1928   */\n      dup3\n        /* \"#utility.yul\":1924:1925   */\n      dup3\n        /* \"#utility.yul\":1920:1929   */\n      mul\n        /* \"#utility.yul\":1909:1929   */\n      swap1\n      pop\n        /* \"#utility.yul\":1587:1935   */\n      swap3\n      swap2\n      pop\n      pop\n      jump\t// out\n        /* \"#utility.yul\":1941:2121   */\n    tag_36:\n        /* \"#utility.yul\":1989:2066   */\n      0x4e487b7100000000000000000000000000000000000000000000000000000000\n        /* \"#utility.yul\":1986:1987   */\n      0x00\n        /* \"#utility.yul\":1979:2067   */\n      mstore\n        /* \"#utility.yul\":2086:2090   */\n      0x12\n        /* \"#utility.yul\":2083:2084   */\n      0x04\n        /* \"#utility.yul\":2076:2091   */\n      mstore\n        /* \"#utility.yul\":2110:2114   */\n      0x24\n        /* \"#utility.yul\":2107:2108   */\n      0x00\n        /* \"#utility.yul\":2100:2115   */\n      revert\n        /* \"#utility.yul\":2127:2312   */\n    tag_18:\n        /* \"#utility.yul\":2167:2168   */\n      0x00\n        /* \"#utility.yul\":2184:2204   */\n      tag_70\n        /* \"#utility.yul\":2202:2203   */\n      dup3\n        /* \"#utility.yul\":2184:2204   */\n      tag_31\n      jump\t// in\n    tag_70:\n        /* \"#utility.yul\":2179:2204   */\n      swap2\n      pop\n        /* \"#utility.yul\":2218:2238   */\n      tag_71\n        /* \"#utility.yul\":2236:2237   */\n      dup4\n        /* \"#utility.yul\":2218:2238   */\n      tag_31\n      jump\t// in\n    tag_71:\n        /* \"#utility.yul\":2213:2238   */\n      swap3\n      pop\n        /* \"#utility.yul\":2257:2258   */\n      dup3\n        /* \"#utility.yul\":2247:2282   */\n      tag_72\n      jumpi\n        /* \"#utility.yul\":2262:2280   */\n      tag_73\n      tag_36\n      jump\t// in\n    tag_73:\n        /* \"#utility.yul\":2247:2282   */\n    tag_72:\n        /* \"#utility.yul\":2304:2305   */\n      dup3\n        /* \"#utility.yul\":2301:2302   */\n      dup3\n        /* \"#utility.yul\":2297:2306   */\n      div\n        /* \"#utility.yul\":2292:2306   */\n      swap1\n      pop\n        /* \"#utility.yul\":2127:2312   */\n      swap3\n      swap2\n      pop\n      pop\n      jump\t// out\n        /* \"#utility.yul\":2318:2423   */\n    tag_37:\n        /* \"#utility.yul\":2354:2361   */\n      0x00\n        /* \"#utility.yul\":2394:2416   */\n      0xffffffffffffffffffff\n        /* \"#utility.yul\":2387:2392   */\n      dup3\n        /* \"#utility.yul\":2383:2417   */\n      and\n        /* \"#utility.yul\":2372:2417   */\n      swap1\n      pop\n        /* \"#utility.yul\":2318:2423   */\n      swap2\n      swap1\n      pop\n      jump\t// out\n        /* \"#utility.yul\":2429:2549   */\n    tag_38:\n        /* \"#utility.yul\":2501:2524   */\n      tag_76\n        /* \"#utility.yul\":2518:2523   */\n      dup2\n        /* \"#utility.yul\":2501:2524   */\n      tag_37\n      jump\t// in\n    tag_76:\n        /* \"#utility.yul\":2494:2499   */\n      dup2\n        /* \"#utility.yul\":2491:2525   */\n      eq\n        /* \"#utility.yul\":2481:2543   */\n      tag_77\n      jumpi\n        /* \"#utility.yul\":2539:2540   */\n      0x00\n        /* \"#utility.yul\":2536:2537   */\n      dup1\n        /* \"#utility.yul\":2529:2541   */\n      revert\n        /* \"#utility.yul\":2481:2543   */\n    tag_77:\n        /* \"#utility.yul\":2429:2549   */\n      pop\n      jump\t// out\n        /* \"#utility.yul\":2555:2696   */\n    tag_39:\n        /* \"#utility.yul\":2611:2616   */\n      0x00\n        /* \"#utility.yul\":2642:2648   */\n      dup2\n        /* \"#utility.yul\":2636:2649   */\n      mload\n        /* \"#utility.yul\":2627:2649   */\n      swap1\n      pop\n        /* \"#utility.yul\":2658:2690   */\n      tag_79\n        /* \"#utility.yul\":2684:2689   */\n      dup2\n        /* \"#utility.yul\":2658:2690   */\n      tag_38\n      jump\t// in\n    tag_79:\n        /* \"#utility.yul\":2555:2696   */\n      swap3\n      swap2\n      pop\n      pop\n      jump\t// out\n        /* \"#utility.yul\":2702:2778   */\n    tag_40:\n        /* \"#utility.yul\":2738:2745   */\n      0x00\n        /* \"#utility.yul\":2767:2772   */\n      dup2\n        /* \"#utility.yul\":2756:2772   */\n      swap1\n      pop\n        /* \"#utility.yul\":2702:2778   */\n      swap2\n      swap1\n      pop\n      jump\t// out\n        /* \"#utility.yul\":2784:2904   */\n    tag_41:\n        /* \"#utility.yul\":2856:2879   */\n      tag_82\n        /* \"#utility.yul\":2873:2878   */\n      dup2\n        /* \"#utility.yul\":2856:2879   */\n      tag_40\n      jump\t// in\n    tag_82:\n        /* \"#utility.yul\":2849:2854   */\n      dup2\n        /* \"#utility.yul\":2846:2880   */\n      eq\n        /* \"#utility.yul\":2836:2898   */\n      tag_83\n      jumpi\n        /* \"#utility.yul\":2894:2895   */\n      0x00\n        /* \"#utility.yul\":2891:2892   */\n      dup1\n        /* \"#utility.yul\":2884:2896   */\n      revert\n        /* \"#utility.yul\":2836:2898   */\n    tag_83:\n        /* \"#utility.yul\":2784:2904   */\n      pop\n      jump\t// out\n        /* \"#utility.yul\":2910:3051   */\n    tag_42:\n        /* \"#utility.yul\":2966:2971   */\n      0x00\n        /* \"#utility.yul\":2997:3003   */\n      dup2\n        /* \"#utility.yul\":2991:3004   */\n      mload\n        /* \"#utility.yul\":2982:3004   */\n      swap1\n      pop\n        /* \"#utility.yul\":3013:3045   */\n      tag_85\n        /* \"#utility.yul\":3039:3044   */\n      dup2\n        /* \"#utility.yul\":3013:3045   */\n      tag_41\n      jump\t// in\n    tag_85:\n        /* \"#utility.yul\":2910:3051   */\n      swap3\n      swap2\n      pop\n      pop\n      jump\t// out\n        /* \"#utility.yul\":3057:3200   */\n    tag_43:\n        /* \"#utility.yul\":3114:3119   */\n      0x00\n        /* \"#utility.yul\":3145:3151   */\n      dup2\n        /* \"#utility.yul\":3139:3152   */\n      mload\n        /* \"#utility.yul\":3130:3152   */\n      swap1\n      pop\n        /* \"#utility.yul\":3161:3194   */\n      tag_87\n        /* \"#utility.yul\":3188:3193   */\n      dup2\n        /* \"#utility.yul\":3161:3194   */\n      tag_32\n      jump\t// in\n    tag_87:\n        /* \"#utility.yul\":3057:3200   */\n      swap3\n      swap2\n      pop\n      pop\n      jump\t// out\n        /* \"#utility.yul\":3206:4177   */\n    tag_25:\n        /* \"#utility.yul\":3309:3315   */\n      0x00\n        /* \"#utility.yul\":3317:3323   */\n      dup1\n        /* \"#utility.yul\":3325:3331   */\n      0x00\n        /* \"#utility.yul\":3333:3339   */\n      dup1\n        /* \"#utility.yul\":3341:3347   */\n      0x00\n        /* \"#utility.yul\":3390:3393   */\n      0xa0\n        /* \"#utility.yul\":3378:3387   */\n      dup7\n        /* \"#utility.yul\":3369:3376   */\n      dup9\n        /* \"#utility.yul\":3365:3388   */\n      sub\n        /* \"#utility.yul\":3361:3394   */\n      slt\n        /* \"#utility.yul\":3358:3478   */\n      iszero\n      tag_89\n      jumpi\n        /* \"#utility.yul\":3397:3476   */\n      tag_90\n      tag_29\n      jump\t// in\n    tag_90:\n        /* \"#utility.yul\":3358:3478   */\n    tag_89:\n        /* \"#utility.yul\":3517:3518   */\n      0x00\n        /* \"#utility.yul\":3542:3605   */\n      tag_91\n        /* \"#utility.yul\":3597:3604   */\n      dup9\n        /* \"#utility.yul\":3588:3594   */\n      dup3\n        /* \"#utility.yul\":3577:3586   */\n      dup10\n        /* \"#utility.yul\":3573:3595   */\n      add\n        /* \"#utility.yul\":3542:3605   */\n      tag_39\n      jump\t// in\n    tag_91:\n        /* \"#utility.yul\":3532:3605   */\n      swap6\n      pop\n        /* \"#utility.yul\":3488:3615   */\n      pop\n        /* \"#utility.yul\":3654:3656   */\n      0x20\n        /* \"#utility.yul\":3680:3743   */\n      tag_92\n        /* \"#utility.yul\":3735:3742   */\n      dup9\n        /* \"#utility.yul\":3726:3732   */\n      dup3\n        /* \"#utility.yul\":3715:3724   */\n      dup10\n        /* \"#utility.yul\":3711:3733   */\n      add\n        /* \"#utility.yul\":3680:3743   */\n      tag_42\n      jump\t// in\n    tag_92:\n        /* \"#utility.yul\":3670:3743   */\n      swap5\n      pop\n        /* \"#utility.yul\":3625:3753   */\n      pop\n        /* \"#utility.yul\":3792:3794   */\n      0x40\n        /* \"#utility.yul\":3818:3882   */\n      tag_93\n        /* \"#utility.yul\":3874:3881   */\n      dup9\n        /* \"#utility.yul\":3865:3871   */\n      dup3\n        /* \"#utility.yul\":3854:3863   */\n      dup10\n        /* \"#utility.yul\":3850:3872   */\n      add\n        /* \"#utility.yul\":3818:3882   */\n      tag_43\n      jump\t// in\n    tag_93:\n        /* \"#utility.yul\":3808:3882   */\n      swap4\n      pop\n        /* \"#utility.yul\":3763:3892   */\n      pop\n        /* \"#utility.yul\":3931:3933   */\n      0x60\n        /* \"#utility.yul\":3957:4021   */\n      tag_94\n        /* \"#utility.yul\":4013:4020   */\n      dup9\n        /* \"#utility.yul\":4004:4010   */\n      dup3\n        /* \"#utility.yul\":3993:4002   */\n      dup10\n        /* \"#utility.yul\":3989:4011   */\n      add\n        /* \"#utility.yul\":3957:4021   */\n      tag_43\n      jump\t// in\n    tag_94:\n        /* \"#utility.yul\":3947:4021   */\n      swap3\n      pop\n        /* \"#utility.yul\":3902:4031   */\n      pop\n        /* \"#utility.yul\":4070:4073   */\n      0x80\n        /* \"#utility.yul\":4097:4160   */\n      tag_95\n        /* \"#utility.yul\":4152:4159   */\n      dup9\n        /* \"#utility.yul\":4143:4149   */\n      dup3\n        /* \"#utility.yul\":4132:4141   */\n      dup10\n        /* \"#utility.yul\":4128:4150   */\n      add\n        /* \"#utility.yul\":4097:4160   */\n      tag_39\n      jump\t// in\n    tag_95:\n        /* \"#utility.yul\":4087:4160   */\n      swap2\n      pop\n        /* \"#utility.yul\":4041:4170   */\n      pop\n        /* \"#utility.yul\":3206:4177   */\n      swap3\n      swap6\n      pop\n      swap3\n      swap6\n      swap1\n      swap4\n      pop\n      jump\t// out\n        /* \"#utility.yul\":4183:5174   */\n    tag_27:\n        /* \"#utility.yul\":4222:4229   */\n      0x00\n        /* \"#utility.yul\":4245:4264   */\n      tag_97\n        /* \"#utility.yul\":4262:4263   */\n      dup3\n        /* \"#utility.yul\":4245:4264   */\n      tag_40\n      jump\t// in\n    tag_97:\n        /* \"#utility.yul\":4240:4264   */\n      swap2\n      pop\n        /* \"#utility.yul\":4278:4297   */\n      tag_98\n        /* \"#utility.yul\":4295:4296   */\n      dup4\n        /* \"#utility.yul\":4278:4297   */\n      tag_40\n      jump\t// in\n    tag_98:\n        /* \"#utility.yul\":4273:4297   */\n      swap3\n      pop\n        /* \"#utility.yul\":4479:4480   */\n      dup3\n        /* \"#utility.yul\":4411:4477   */\n      0x7fffffffffffffffffffffffffffffffffffffffffffffffffffffffffffffff\n        /* \"#utility.yul\":4407:4481   */\n      div\n        /* \"#utility.yul\":4404:4405   */\n      dup3\n        /* \"#utility.yul\":4401:4482   */\n      gt\n        /* \"#utility.yul\":4396:4397   */\n      0x00\n        /* \"#utility.yul\":4393:4394   */\n      dup5\n        /* \"#utility.yul\":4389:4398   */\n      sgt\n        /* \"#utility.yul\":4385:4386   */\n      0x00\n        /* \"#utility.yul\":4382:4383   */\n      dup5\n        /* \"#utility.yul\":4378:4387   */\n      sgt\n        /* \"#utility.yul\":4374:4399   */\n      and\n        /* \"#utility.yul\":4370:4483   */\n      and\n        /* \"#utility.yul\":4367:4506   */\n      iszero\n      tag_99\n      jumpi\n        /* \"#utility.yul\":4486:4504   */\n      tag_100\n      tag_35\n      jump\t// in\n    tag_100:\n        /* \"#utility.yul\":4367:4506   */\n    tag_99:\n        /* \"#utility.yul\":4690:4691   */\n      dup2\n        /* \"#utility.yul\":4622:4688   */\n      0x8000000000000000000000000000000000000000000000000000000000000000\n        /* \"#utility.yul\":4617:4692   */\n      sdiv\n        /* \"#utility.yul\":4614:4615   */\n      dup4\n        /* \"#utility.yul\":4610:4693   */\n      slt\n        /* \"#utility.yul\":4605:4606   */\n      0x00\n        /* \"#utility.yul\":4602:4603   */\n      dup5\n        /* \"#utility.yul\":4598:4607   */\n      slt\n        /* \"#utility.yul\":4594:4595   */\n      0x00\n        /* \"#utility.yul\":4591:4592   */\n      dup5\n        /* \"#utility.yul\":4587:4596   */\n      sgt\n        /* \"#utility.yul\":4583:4608   */\n      and\n        /* \"#utility.yul\":4579:4694   */\n      and\n        /* \"#utility.yul\":4576:4717   */\n      iszero\n      tag_101\n      jumpi\n        /* \"#utility.yul\":4697:4715   */\n      tag_102\n      tag_35\n      jump\t// in\n    tag_102:\n        /* \"#utility.yul\":4576:4717   */\n    tag_101:\n        /* \"#utility.yul\":4901:4902   */\n      dup3\n        /* \"#utility.yul\":4833:4899   */\n      0x8000000000000000000000000000000000000000000000000000000000000000\n        /* \"#utility.yul\":4828:4903   */\n      sdiv\n        /* \"#utility.yul\":4825:4826   */\n      dup3\n        /* \"#utility.yul\":4821:4904   */\n      slt\n        /* \"#utility.yul\":4816:4817   */\n      0x00\n        /* \"#utility.yul\":4813:4814   */\n      dup5\n        /* \"#utility.yul\":4809:4818   */\n      sgt\n        /* \"#utility.yul\":4805:4806   */\n      0x00\n        /* \"#utility.yul\":4802:4803   */\n      dup5\n        /* \"#utility.yul\":4798:4807   */\n      slt\n        /* \"#utility.yul\":4794:4819   */\n      and\n        /* \"#utility.yul\":4790:4905   */\n      and\n        /* \"#utility.yul\":4787:4928   */\n      iszero\n      tag_103\n      jumpi\n        /* \"#utility.yul\":4908:4926   */\n      tag_104\n      tag_35\n      jump\t// in\n    tag_104:\n        /* \"#utility.yul\":4787:4928   */\n    tag_103:\n        /* \"#utility.yul\":5111:5112   */\n      dup3\n        /* \"#utility.yul\":5043:5109   */\n      0x7fffffffffffffffffffffffffffffffffffffffffffffffffffffffffffffff\n        /* \"#utility.yul\":5038:5113   */\n      sdiv\n        /* \"#utility.yul\":5035:5036   */\n      dup3\n        /* \"#utility.yul\":5031:5114   */\n      slt\n        /* \"#utility.yul\":5026:5027   */\n      0x00\n        /* \"#utility.yul\":5023:5024   */\n      dup5\n        /* \"#utility.yul\":5019:5028   */\n      slt\n        /* \"#utility.yul\":5015:5016   */\n      0x00\n        /* \"#utility.yul\":5012:5013   */\n      dup5\n        /* \"#utility.yul\":5008:5017   */\n      slt\n        /* \"#utility.yul\":5004:5029   */\n      and\n        /* \"#utility.yul\":5000:5115   */\n      and\n        /* \"#utility.yul\":4997:5138   */\n      iszero\n      tag_105\n      jumpi\n        /* \"#utility.yul\":5118:5136   */\n      tag_106\n      tag_35\n      jump\t// in\n    tag_106:\n        /* \"#utility.yul\":4997:5138   */\n    tag_105:\n        /* \"#utility.yul\":5166:5167   */\n      dup3\n        /* \"#utility.yul\":5163:5164   */\n      dup3\n        /* \"#utility.yul\":5159:5168   */\n      mul\n        /* \"#utility.yul\":5148:5168   */\n      swap1\n      pop\n        /* \"#utility.yul\":4183:5174   */\n      swap3\n      swap2\n      pop\n      pop\n      jump\t// out\n\n    auxdata: 0xa2646970667358221220a11510520726c80833a0dcbbb921f2e5a4f758a12dded3d24b620c060ef0fb4164736f6c63430008080033\n}\n",
				"bytecode": {
					"linkReferences": {},
					"object": "610561610053600b82828239805160001a607314610046577f4e487b7100000000000000000000000000000000000000000000000000000000600052600060045260246000fd5b30600052607381538281f3fe73000000000000000000000000000000000000000030146080604052600436106100405760003560e01c80636e5b6b281461004557806398d5fdca14610075575b600080fd5b61005f600480360381019061005a91906101cc565b610093565b60405161006c9190610208565b60405180910390f35b61007d6100d9565b60405161008a9190610208565b60405180910390f35b60008061009e6100d9565b90506000670de0b6b3a7640000600a85846100b99190610252565b6100c391906102db565b6100cd9190610252565b90508092505050919050565b60008073779877a7b0d9e8603169ddbd7836e478b4624789905060008173ffffffffffffffffffffffffffffffffffffffff1663feaf968c6040518163ffffffff1660e01b815260040160a06040518083038186803b15801561013b57600080fd5b505afa15801561014f573d6000803e3d6000fd5b505050506040513d601f19601f820116820180604052508101906101739190610399565b5050509150506402540be4008161018a9190610414565b9250505090565b600080fd5b6000819050919050565b6101a981610196565b81146101b457600080fd5b50565b6000813590506101c6816101a0565b92915050565b6000602082840312156101e2576101e1610191565b5b60006101f0848285016101b7565b91505092915050565b61020281610196565b82525050565b600060208201905061021d60008301846101f9565b92915050565b7f4e487b7100000000000000000000000000000000000000000000000000000000600052601160045260246000fd5b600061025d82610196565b915061026883610196565b9250817fffffffffffffffffffffffffffffffffffffffffffffffffffffffffffffffff04831182151516156102a1576102a0610223565b5b828202905092915050565b7f4e487b7100000000000000000000000000000000000000000000000000000000600052601260045260246000fd5b60006102e682610196565b91506102f183610196565b925082610301576103006102ac565b5b828204905092915050565b600069ffffffffffffffffffff82169050919050565b61032b8161030c565b811461033657600080fd5b50565b60008151905061034881610322565b92915050565b6000819050919050565b6103618161034e565b811461036c57600080fd5b50565b60008151905061037e81610358565b92915050565b600081519050610393816101a0565b92915050565b600080600080600060a086880312156103b5576103b4610191565b5b60006103c388828901610339565b95505060206103d48882890161036f565b94505060406103e588828901610384565b93505060606103f688828901610384565b925050608061040788828901610339565b9150509295509295909350565b600061041f8261034e565b915061042a8361034e565b9250827f7fffffffffffffffffffffffffffffffffffffffffffffffffffffffffffffff048211600084136000841316161561046957610468610223565b5b817f800000000000000000000000000000000000000000000000000000000000000005831260008412600084131616156104a6576104a5610223565b5b827f800000000000000000000000000000000000000000000000000000000000000005821260008413600084121616156104e3576104e2610223565b5b827f7fffffffffffffffffffffffffffffffffffffffffffffffffffffffffffffff05821260008412600084121616156105205761051f610223565b5b82820290509291505056fea2646970667358221220a11510520726c80833a0dcbbb921f2e5a4f758a12dded3d24b620c060ef0fb4164736f6c63430008080033",
					"opcodes": "PUSH2 0x561 PUSH2 0x53 PUSH1 0xB DUP3 DUP3 DUP3 CODECOPY DUP1 MLOAD PUSH1 0x0 BYTE PUSH1 0x73 EQ PUSH2 0x46 JUMPI PUSH32 0x4E487B7100000000000000000000000000000000000000000000000000000000 PUSH1 0x0 MSTORE PUSH1 0x0 PUSH1 0x4 MSTORE PUSH1 0x24 PUSH1 0x0 REVERT JUMPDEST ADDRESS PUSH1 0x0 MSTORE PUSH1 0x73 DUP2 MSTORE8 DUP3 DUP2 RETURN INVALID PUSH20 0x0 ADDRESS EQ PUSH1 0x80 PUSH1 0x40 MSTORE PUSH1 0x4 CALLDATASIZE LT PUSH2 0x40 JUMPI PUSH1 0x0 CALLDATALOAD PUSH1 0xE0 SHR DUP1 PUSH4 0x6E5B6B28 EQ PUSH2 0x45 JUMPI DUP1 PUSH4 0x98D5FDCA EQ PUSH2 0x75 JUMPI JUMPDEST PUSH1 0x0 DUP1 REVERT JUMPDEST PUSH2 0x5F PUSH1 0x4 DUP1 CALLDATASIZE SUB DUP2 ADD SWAP1 PUSH2 0x5A SWAP2 SWAP1 PUSH2 0x1CC JUMP JUMPDEST PUSH2 0x93 JUMP JUMPDEST PUSH1 0x40 MLOAD PUSH2 0x6C SWAP2 SWAP1 PUSH2 0x208 JUMP JUMPDEST PUSH1 0x40 MLOAD DUP1 SWAP2 SUB SWAP1 RETURN JUMPDEST PUSH2 0x7D PUSH2 0xD9 JUMP JUMPDEST PUSH1 0x40 MLOAD PUSH2 0x8A SWAP2 SWAP1 PUSH2 0x208 JUMP JUMPDEST PUSH1 0x40 MLOAD DUP1 SWAP2 SUB SWAP1 RETURN JUMPDEST PUSH1 0x0 DUP1 PUSH2 0x9E PUSH2 0xD9 JUMP JUMPDEST SWAP1 POP PUSH1 0x0 PUSH8 0xDE0B6B3A7640000 PUSH1 0xA DUP6 DUP5 PUSH2 0xB9 SWAP2 SWAP1 PUSH2 0x252 JUMP JUMPDEST PUSH2 0xC3 SWAP2 SWAP1 PUSH2 0x2DB JUMP JUMPDEST PUSH2 0xCD SWAP2 SWAP1 PUSH2 0x252 JUMP JUMPDEST SWAP1 POP DUP1 SWAP3 POP POP POP SWAP2 SWAP1 POP JUMP JUMPDEST PUSH1 0x0 DUP1 PUSH20 0x779877A7B0D9E8603169DDBD7836E478B4624789 SWAP1 POP PUSH1 0x0 DUP2 PUSH20 0xFFFFFFFFFFFFFFFFFFFFFFFFFFFFFFFFFFFFFFFF AND PUSH4 0xFEAF968C PUSH1 0x40 MLOAD DUP2 PUSH4 0xFFFFFFFF AND PUSH1 0xE0 SHL DUP2 MSTORE PUSH1 0x4 ADD PUSH1 0xA0 PUSH1 0x40 MLOAD DUP1 DUP4 SUB DUP2 DUP7 DUP1 EXTCODESIZE ISZERO DUP1 ISZERO PUSH2 0x13B JUMPI PUSH1 0x0 DUP1 REVERT JUMPDEST POP GAS STATICCALL ISZERO DUP1 ISZERO PUSH2 0x14F JUMPI RETURNDATASIZE PUSH1 0x0 DUP1 RETURNDATACOPY RETURNDATASIZE PUSH1 0x0 REVERT JUMPDEST POP POP POP POP PUSH1 0x40 MLOAD RETURNDATASIZE PUSH1 0x1F NOT PUSH1 0x1F DUP3 ADD AND DUP3 ADD DUP1 PUSH1 0x40 MSTORE POP DUP2 ADD SWAP1 PUSH2 0x173 SWAP2 SWAP1 PUSH2 0x399 JUMP JUMPDEST POP POP POP SWAP2 POP POP PUSH5 0x2540BE400 DUP2 PUSH2 0x18A SWAP2 SWAP1 PUSH2 0x414 JUMP JUMPDEST SWAP3 POP POP POP SWAP1 JUMP JUMPDEST PUSH1 0x0 DUP1 REVERT JUMPDEST PUSH1 0x0 DUP2 SWAP1 POP SWAP2 SWAP1 POP JUMP JUMPDEST PUSH2 0x1A9 DUP2 PUSH2 0x196 JUMP JUMPDEST DUP2 EQ PUSH2 0x1B4 JUMPI PUSH1 0x0 DUP1 REVERT JUMPDEST POP JUMP JUMPDEST PUSH1 0x0 DUP2 CALLDATALOAD SWAP1 POP PUSH2 0x1C6 DUP2 PUSH2 0x1A0 JUMP JUMPDEST SWAP3 SWAP2 POP POP JUMP JUMPDEST PUSH1 0x0 PUSH1 0x20 DUP3 DUP5 SUB SLT ISZERO PUSH2 0x1E2 JUMPI PUSH2 0x1E1 PUSH2 0x191 JUMP JUMPDEST JUMPDEST PUSH1 0x0 PUSH2 0x1F0 DUP5 DUP3 DUP6 ADD PUSH2 0x1B7 JUMP JUMPDEST SWAP2 POP POP SWAP3 SWAP2 POP POP JUMP JUMPDEST PUSH2 0x202 DUP2 PUSH2 0x196 JUMP JUMPDEST DUP3 MSTORE POP POP JUMP JUMPDEST PUSH1 0x0 PUSH1 0x20 DUP3 ADD SWAP1 POP PUSH2 0x21D PUSH1 0x0 DUP4 ADD DUP5 PUSH2 0x1F9 JUMP JUMPDEST SWAP3 SWAP2 POP POP JUMP JUMPDEST PUSH32 0x4E487B7100000000000000000000000000000000000000000000000000000000 PUSH1 0x0 MSTORE PUSH1 0x11 PUSH1 0x4 MSTORE PUSH1 0x24 PUSH1 0x0 REVERT JUMPDEST PUSH1 0x0 PUSH2 0x25D DUP3 PUSH2 0x196 JUMP JUMPDEST SWAP2 POP PUSH2 0x268 DUP4 PUSH2 0x196 JUMP JUMPDEST SWAP3 POP DUP2 PUSH32 0xFFFFFFFFFFFFFFFFFFFFFFFFFFFFFFFFFFFFFFFFFFFFFFFFFFFFFFFFFFFFFFFF DIV DUP4 GT DUP3 ISZERO ISZERO AND ISZERO PUSH2 0x2A1 JUMPI PUSH2 0x2A0 PUSH2 0x223 JUMP JUMPDEST JUMPDEST DUP3 DUP3 MUL SWAP1 POP SWAP3 SWAP2 POP POP JUMP JUMPDEST PUSH32 0x4E487B7100000000000000000000000000000000000000000000000000000000 PUSH1 0x0 MSTORE PUSH1 0x12 PUSH1 0x4 MSTORE PUSH1 0x24 PUSH1 0x0 REVERT JUMPDEST PUSH1 0x0 PUSH2 0x2E6 DUP3 PUSH2 0x196 JUMP JUMPDEST SWAP2 POP PUSH2 0x2F1 DUP4 PUSH2 0x196 JUMP JUMPDEST SWAP3 POP DUP3 PUSH2 0x301 JUMPI PUSH2 0x300 PUSH2 0x2AC JUMP JUMPDEST JUMPDEST DUP3 DUP3 DIV SWAP1 POP SWAP3 SWAP2 POP POP JUMP JUMPDEST PUSH1 0x0 PUSH10 0xFFFFFFFFFFFFFFFFFFFF DUP3 AND SWAP1 POP SWAP2 SWAP1 POP JUMP JUMPDEST PUSH2 0x32B DUP2 PUSH2 0x30C JUMP JUMPDEST DUP2 EQ PUSH2 0x336 JUMPI PUSH1 0x0 DUP1 REVERT JUMPDEST POP JUMP JUMPDEST PUSH1 0x0 DUP2 MLOAD SWAP1 POP PUSH2 0x348 DUP2 PUSH2 0x322 JUMP JUMPDEST SWAP3 SWAP2 POP POP JUMP JUMPDEST PUSH1 0x0 DUP2 SWAP1 POP SWAP2 SWAP1 POP JUMP JUMPDEST PUSH2 0x361 DUP2 PUSH2 0x34E JUMP JUMPDEST DUP2 EQ PUSH2 0x36C JUMPI PUSH1 0x0 DUP1 REVERT JUMPDEST POP JUMP JUMPDEST PUSH1 0x0 DUP2 MLOAD SWAP1 POP PUSH2 0x37E DUP2 PUSH2 0x358 JUMP JUMPDEST SWAP3 SWAP2 POP POP JUMP JUMPDEST PUSH1 0x0 DUP2 MLOAD SWAP1 POP PUSH2 0x393 DUP2 PUSH2 0x1A0 JUMP JUMPDEST SWAP3 SWAP2 POP POP JUMP JUMPDEST PUSH1 0x0 DUP1 PUSH1 0x0 DUP1 PUSH1 0x0 PUSH1 0xA0 DUP7 DUP9 SUB SLT ISZERO PUSH2 0x3B5 JUMPI PUSH2 0x3B4 PUSH2 0x191 JUMP JUMPDEST JUMPDEST PUSH1 0x0 PUSH2 0x3C3 DUP9 DUP3 DUP10 ADD PUSH2 0x339 JUMP JUMPDEST SWAP6 POP POP PUSH1 0x20 PUSH2 0x3D4 DUP9 DUP3 DUP10 ADD PUSH2 0x36F JUMP JUMPDEST SWAP5 POP POP PUSH1 0x40 PUSH2 0x3E5 DUP9 DUP3 DUP10 ADD PUSH2 0x384 JUMP JUMPDEST SWAP4 POP POP PUSH1 0x60 PUSH2 0x3F6 DUP9 DUP3 DUP10 ADD PUSH2 0x384 JUMP JUMPDEST SWAP3 POP POP PUSH1 0x80 PUSH2 0x407 DUP9 DUP3 DUP10 ADD PUSH2 0x339 JUMP JUMPDEST SWAP2 POP POP SWAP3 SWAP6 POP SWAP3 SWAP6 SWAP1 SWAP4 POP JUMP JUMPDEST PUSH1 0x0 PUSH2 0x41F DUP3 PUSH2 0x34E JUMP JUMPDEST SWAP2 POP PUSH2 0x42A DUP4 PUSH2 0x34E JUMP JUMPDEST SWAP3 POP DUP3 PUSH32 0x7FFFFFFFFFFFFFFFFFFFFFFFFFFFFFFFFFFFFFFFFFFFFFFFFFFFFFFFFFFFFFFF DIV DUP3 GT PUSH1 0x0 DUP5 SGT PUSH1 0x0 DUP5 SGT AND AND ISZERO PUSH2 0x469 JUMPI PUSH2 0x468 PUSH2 0x223 JUMP JUMPDEST JUMPDEST DUP2 PUSH32 0x8000000000000000000000000000000000000000000000000000000000000000 SDIV DUP4 SLT PUSH1 0x0 DUP5 SLT PUSH1 0x0 DUP5 SGT AND AND ISZERO PUSH2 0x4A6 JUMPI PUSH2 0x4A5 PUSH2 0x223 JUMP JUMPDEST JUMPDEST DUP3 PUSH32 0x8000000000000000000000000000000000000000000000000000000000000000 SDIV DUP3 SLT PUSH1 0x0 DUP5 SGT PUSH1 0x0 DUP5 SLT AND AND ISZERO PUSH2 0x4E3 JUMPI PUSH2 0x4E2 PUSH2 0x223 JUMP JUMPDEST JUMPDEST DUP3 PUSH32 0x7FFFFFFFFFFFFFFFFFFFFFFFFFFFFFFFFFFFFFFFFFFFFFFFFFFFFFFFFFFFFFFF SDIV DUP3 SLT PUSH1 0x0 DUP5 SLT PUSH1 0x0 DUP5 SLT AND AND ISZERO PUSH2 0x520 JUMPI PUSH2 0x51F PUSH2 0x223 JUMP JUMPDEST JUMPDEST DUP3 DUP3 MUL SWAP1 POP SWAP3 SWAP2 POP POP JUMP INVALID LOG2 PUSH5 0x6970667358 0x22 SLT KECCAK256 LOG1 ISZERO LT MSTORE SMOD 0x26 0xC8 ADDMOD CALLER LOG0 0xDC 0xBB 0xB9 0x21 CALLCODE 0xE5 LOG4 0xF7 PC LOG1 0x2D 0xDE 0xD3 0xD2 0x4B PUSH3 0xC060E CREATE 0xFB COINBASE PUSH5 0x736F6C6343 STOP ADDMOD ADDMOD STOP CALLER "
				},
				"gasEstimates": {
					"creation": {
						"codeDepositCost": "275400",
						"executionCost": "343",
						"totalCost": "275743"
					},
					"external": {
						"getConversionRate(uint256)": "infinite",
						"getPrice()": "infinite"
					}
				},
				"methodIdentifiers": {
					"getConversionRate(uint256)": "6e5b6b28",
					"getPrice()": "98d5fdca"
				}
			},
			"storageLayout": {
				"storage": [],
				"types": null
			},
			"userdoc": {
				"kind": "user",
				"methods": {},
				"version": 1
			}
		}
	}
}